:020000040800F2
:1000000078C8012089080008E5080008E50800080C
:10001000E5080008E5080008E50800080000000001
:10002000000000000000000000000000E5080008DB
:10003000E508000800000000E5080008E5080008E1
:10004000E5080008E5080008E5080008E5080008DC
:10005000E5080008E5080008E5080008E5080008CC
:10006000E5080008E5080008E5080008E5080008BC
:10007000E5080008E5080008E5080008E5080008AC
:10008000E5080008E5080008E5080008E50800089C
:10009000E5080008E5080008E5080008E50800088C
:1000A000E5080008E5080008E5080008E50800087C
:1000B0003DA00008E5080008E5080008E50800087C
:1000C000E5080008E5080008E5080008E50800085C
:1000D000E5080008E508000851070008E5080008E1
:1000E000E5080008E5080008E5080008E50800083C
:1000F000E5080008E5080008E5080008E50800082C
:10010000E5080008E5080008E5080008E50800081B
:10011000E5080008E5080008E5080008E50800080B
:10012000E5080008E5080008E5080008E5080008FB
:10013000E5080008E5080008E5080008E5080008EB
:10014000E5080008E5080008E5080008E5080008DB
:10015000F5A00008E5080008E5080008E508000823
:10016000E5080008E5080008E5080008E5080008BB
:10017000E5080008E5080008E5080008E5080008AB
:10018000E5080008E508000880B584B000AF3B46EC
:10019000184600F087FC3A68454B1A60444B1B68D0
:1001A00018460AF095FB02460B46104619464FF0DA
:1001B0000002404B0AF002FC02460B46104619466C
:1001C0004FF000023C4B0AF023FD02460B4610465E
:1001D00019464FF000024FF080430AF019FD024625
:1001E0000B46104619460AF0FBFD0246334B1A60D7
:1001F0002F4B1B6818460AF06BFB02460B46104655
:1002000019464FF000022B4B0AF0D8FB02460B4672
:100210001046194622A3D3E900230AF0F9FC02464E
:100220000B46104619464FF000024FF080430AF08B
:10023000EFFC02460B46104619460AF0D1FD024675
:100240001F4B1A601A4B1B6818460AF041FB024606
:100250000B46104619464FF00002164B0AF0AEFB53
:1002600002460B46104619460FA3D3E900230AF0B5
:10027000CFFC02460B46104619464FF000024FF0E5
:1002800080430AF0C5FC02460B46104619460AF0A8
:10029000A7FD02460B4B1A601037BD4680BD00BF5C
:1002A000000000000094C14000000000882A614165
:1002B000089300200000F43F000022400C9300202F
:1002C000149300201093002080B485B000AF7860B4
:1002D0000DE00023FB6002E0FB680133FB60FA687D
:1002E000074B1B689A42F7D37B68013B7B607B68B6
:1002F000002BEED11437BD465DF8047B704700BF7C
:100300001493002080B58AB000AF78603960002374
:100310007B6200233B620023FB610023BB617B689F
:100320001B8A9BB27B627B6A23F440537B623B68EF
:10033000DB887A6A13437B627B6A9AB27B681A8293
:100340007B689B899BB27B627B6A23F4B05323F06A
:100350000C037B623B689A883B681B8913439AB203
:100360003B685B8913439BB27A6A13437B627B6A67
:100370009AB27B689A817B689B8A9BB27B627B6A1C
:1003800023F440737B623B689B897A6A13437B62E8
:100390007B6A9AB27B689A8207F10803184600F0DC
:1003A00081FB7A68314B9A4203D07A68304B9A428B
:1003B00002D17B693B6201E03B693B627B689B89C0
:1003C0009BB29BB21BB2002B0CDA3A6A13469B001D
:1003D00013449A001A443B681B685B00B2FBF3F3BA
:1003E000FB610BE03A6A13469B0013449A001A44DF
:1003F0003B681B689B00B2FBF3F3FB61FA691D4B82
:10040000A3FB02135B091B017B627B6A1B0964224D
:1004100002FB03F3FA69D31ABB617B689B899BB229
:100420009BB21BB2002B0DDABB69DB0003F1320279
:10043000104BA3FB02135B0903F007037A6A134313
:100440007B620CE0BB691B0103F13202094BA3FB89
:1004500002135B0903F00F037A6A13437B627B6A22
:100460009AB27B681A812837BD4680BD00100140D2
:10047000001401401F85EB5180B483B000AF786059
:100480000B46FB70FB78002B08D07B689B899BB2E6
:1004900043F400539AB27B689A8107E07B689B899A
:1004A0009BB223F400539AB27B689A810C37BD4605
:1004B0005DF8047B704700BF80B483B000AF786004
:1004C0000B467B807B88C3F308039AB27B689A80D3
:1004D0000C37BD465DF8047B704700BF80B487B021
:1004E00000AF786013460A467A807B7000233B6138
:1004F0000023FB600023BB6000237B617B687B6182
:100500007B88DBB25B09DBB23B617B8803F01F03B6
:10051000FB60FB68012202FA03F3BB603B69012B1D
:1005200003D17B690C337B6109E03B69022B03D16A
:100530007B6910337B6102E07B6914337B617B78DC
:10054000002B06D07B697A691168BA680A431A6081
:1005500006E07B697A691168BA68D2430A401A607A
:100560001C37BD465DF8047B704700BF80B485B082
:1005700000AF78600B467B800023FB737B681B8891
:100580009AB27B8813409BB2002B02D00123FB73ED
:1005900001E00023FB73FB7B18461437BD465DF872
:1005A000047B704780B487B000AF78600B467B80D7
:1005B0000023FB6000237B610023BB600023FB74EE
:1005C0007B88DBB25B09DBB2BB607B8803F01F0377
:1005D0007B617B69012202FA03F37B61BB68012B1B
:1005E00006D17B689B899BB27A6913407B610FE0DF
:1005F000BB68022B06D17B681B8A9BB27A691340C9
:100600007B6105E07B689B8A9BB27A6913407B61C2
:100610007B881B0A9BB2FB60FB68012202FA03F392
:10062000FB607B681B889BB2FA681340FB607B69A8
:10063000002B05D0FB68002B02D00123FB7401E0E6
:100640000023FB74FB7C18461C37BD465DF8047B19
:10065000704700BF80B485B000AF78600B467B80E8
:100660000023FB810023BB817B881B0AFB81FB8964
:10067000012202FA03F3BB81BB89DB439AB27B6898
:100680001A801437BD465DF8047B704780B586B08C
:1006900000AF4FF40030012100F0CCFA012001211D
:1006A00000F0AAFA0C233B6102233B750023BB75C3
:1006B0000123FB7502237B7507F1100316481946C9
:1006C00008F088FF14480221072209F011F81248A7
:1006D0000321072209F00CF84FF4E1333B600023BB
:1006E000BB800023FB8000233B810023BB810C23C4
:1006F0007B813B4609481946FFF704FE074840F254
:1007000025510122FFF7EAFE04480121FFF7B4FE5C
:100710001837BD4680BD00BF0000024000440040C5
:1007200080B582B000AF0346FB7100BF074880214F
:10073000FFF71CFF0346002BF8D0FB799BB2034860
:100740001946FFF7B9FE0837BD4680BD004400409A
:1007500080B582B000AF274840F22551FFF722FF55
:100760000346002B43D0234840F22551FFF772FF88
:10077000204B9B889BB2FB70FB78402B05D9FB7804
:100780005A2B02D8FB782033FB70FB780D2B1CD83A
:1007900000237B600AE0184A7B6813441B781548E5
:1007A0001946FFF789FE7B6801337B60134B1B689A
:1007B0007A689A42EFDB114B00221A60FB789BB2F9
:1007C0000C481946FFF778FE09E00C4B1B680A4AF3
:1007D000F978D154094B1B685A1C084B1A6000BFAA
:1007E00004484021FFF7C2FE0346002BF8D008372B
:1007F000BD4680BD0044004018930020DC910020DD
:1008000080B582B000AFFF23FB7108482021FFF7BD
:10081000ADFE0346012B03D1044B9B889BB2FB71B9
:10082000FB7918460837BD4680BD00BF0044004034
:1008300080B582B000AF78603960FFF7E1FF034612
:100840001A467B681A707B681B78FF2B03D07B6885
:100850001B780D2B01D100BFEFE73B68002B04D0C4
:100860007B681B781846FFF75BFF7B681B780A2BB9
:1008700003D17B6800221A7003E07B6801337B6040
:10088000DBE70837BD4680BD80B582B000AF104BB6
:100890007B60104B3B6007E03B681A1D3A607A684A
:1008A000111D796012681A603A680B4B9A42F3D3B3
:1008B0000A480B494FF000028842B8BF40F8042BA9
:1008C000FFF6FAAF00F04EF80837BD4680BD00BF16
:1008D00078B6000800000020DC910020DC910020A8
:1008E00078C0012080B400AFFEE700BF80B500AF44
:1008F000FFF7CCFE04F060FCFFF746FC80BD00BFB4
:1009000080B582B000AF786078680021FFF790FF73
:100910007B681B78FF2B02D1044B00221A70034B1B
:100920001B7818460837BD4680BD00BF0000002078
:1009300080B584B000AF78600023FB6009E0FB68FD
:100940007A6813441B781846FFF7EAFEFB68013308
:10095000FB60FB687A6813441B78002BEFD11037DB
:10096000BD4680BD80B5A2B000AF002387F88730B8
:1009700008F004FF97F88730012B0AD0022B18D01B
:10098000002B00D0F6E7FFF7B1FF012387F887308F
:100990001FE03B1D184600F06DF83B1D1846FFF7A1
:1009A000AFFF0346022B03D1022387F8873010E004
:1009B0000FE03B1D184607F057FF034687F88630C7
:1009C00097F88630184600F005F8012387F887303D
:1009D00000BFCFE780B582B000AF0346FB71FB7963
:1009E000072B33D801A252F823F000BF0D0A0008EC
:1009F000150A00081D0A0008250A00082D0A00082B
:100A0000350A00083D0A0008450A00081148FFF7AA
:100A10008FFF1BE01048FFF78BFF17E00F48FFF731
:100A200087FF13E00E48FFF783FF0FE00D48FFF745
:100A30007FFF0BE00C48FFF77BFF07E00B48FFF759
:100A400077FF03E00A48FFF773FF00BF0837BD4692
:100A500080BD00BF10B3000818B3000830B3000811
:100A60004CB3000864B300087CB3000898B30008D6
:100A7000B8B3000880B485B000AF78600023FB6095
:100A800008E07B6800221A707B6801337B60FB689A
:100A90000133FB60FB687F2BF3DD1437BD465DF847
:100AA000047B704780B489B000AF78600023BB61DD
:100AB00000237B610023FB6102233B610023FB6079
:100AC0000223BB60484B9B6803F00C03BB61BB690E
:100AD000042B07D0082B09D0002B3FD17B68434A59
:100AE0001A603FE07B68424A1A603BE03E4B5B681D
:100AF00003F480039B0DFB603B4B5B6803F03F03FB
:100B0000BB60FB68002B0DD0394ABB68B2FBF3F227
:100B1000354B596847F6C0730B409B0903FB02F342
:100B2000FB610CE0314ABB68B2FBF3F22E4B596813
:100B300047F6C0730B409B0903FB02F3FB612A4B92
:100B40005B6803F440331B0C01335B003B61FA69C3
:100B50003B69B2FBF3F27B681A6003E07B68234ACF
:100B60001A6000BF204B9B6803F0F003BB61BB69B8
:100B70001B09BB611F4ABB6913441B78DBB27B6155
:100B80007B681A687B69DA407B685A60164B9B6801
:100B900003F4E053BB61BB699B0ABB61154ABB69A7
:100BA00013441B78DBB27B617B685A687B69DA404F
:100BB0007B689A600C4B9B6803F46043BB61BB6924
:100BC0005B0BBB610B4ABB6913441B78DBB27B61D7
:100BD0007B685A687B69DA407B68DA602437BD46F7
:100BE0005DF8047B704700BF003802400024F40029
:100BF00000127A000400002080B483B000AF786057
:100C00000B46FB70FB78002B06D0094B084A116B92
:100C10007A680A431A6306E0054B054A116B7A6845
:100C2000D2430A401A630C37BD465DF8047B704717
:100C30000038024080B483B000AF78600B46FB7090
:100C4000FB78002B06D0094B084A116C7A680A43DE
:100C50001A6406E0054B054A116C7A68D2430A40D3
:100C60001A640C37BD465DF8047B704700380240BB
:100C700080B483B000AF78600B46FB70FB78002B2C
:100C800006D0094B084A516C7A680A435A6406E058
:100C9000054B054A516C7A68D2430A405A640C37B6
:100CA000BD465DF8047B70470038024080B584B0D3
:100CB00000AFF860B9607A60FB689AB2BB689BB21B
:100CC00010461946002209F067F8FB689BB2013311
:100CD0009AB2BB689BB210461946002209F05CF834
:100CE000FB689BB202339AB2BB689BB210461946AE
:100CF000002209F051F8FB689BB203339AB2BB683B
:100D00009BB210461946002209F046F8FB689BB2D8
:100D100004339AB2BB689BB210461946002209F010
:100D20003BF8FB689BB205339AB2BB689BB2104696
:100D30001946002209F030F8FB689BB206339AB2DC
:100D4000BB689BB210461946002209F025F8FB68E3
:100D50009BB207339AB2BB689BB210461946002279
:100D600009F01AF81037BD4680BD00BF80B584B0C9
:100D700000AFF860B9607A60FB689AB2BB689BB25A
:100D800010461946002209F007F8FB689BB20133B0
:100D90009AB2BB689BB210461946002208F0FCFFCD
:100DA000FB689BB202339AB2BB689BB210461946ED
:100DB000002208F0F1FFFB689BB203339AB2BB68D4
:100DC0009BB210461946002208F0E6FFFB689BB272
:100DD00004339AB2BB689BB210461946002208F051
:100DE000DBFFFB689BB205339AB2BB689BB210462F
:100DF0001946002208F0D0FFFB689BB2063399B277
:100E0000BB689AB27B68DBB2084611461A4608F006
:100E1000C3FFFB689BB207339AB2BB689BB2104614
:100E20001946002208F0B8FF1037BD4680BD00BF4C
:100E300080B584B000AFF860B9607A60FB689AB2A0
:100E4000BB689BB210461946002208F0A5FFFB685C
:100E50009BB201339AB2BB689BB21046194600227E
:100E600008F09AFFFB689BB202339AB2BB689BB250
:100E700010461946002208F08FFFFB689BB203332F
:100E80009AB2BB689BB210461946002208F084FF54
:100E9000FB689BB204339AB2BB689BB210461946FA
:100EA000002208F079FFFB689BB2053399B2BB685A
:100EB0009AB27B68DBB2084611461A4608F06CFF0E
:100EC000FB689BB206339AB2BB689BB210461946C8
:100ED000002208F061FFFB689BB207339AB2BB683F
:100EE0009BB210461946002208F056FF1037BD4647
:100EF00080BD00BF80B584B000AFF860B9607A6093
:100F0000FB689AB2BB689BB210461946002208F0F3
:100F100043FFFB689BB201339AB2BB689BB2104699
:100F20001946002208F038FFFB689BB202339AB2E0
:100F3000BB689BB210461946002208F02DFFFB68E3
:100F40009BB203339AB2BB689BB21046194600228B
:100F500008F022FFFB689BB204339AB2BB689BB2D5
:100F600010461946002208F017FFFB689BB20533B4
:100F700099B2BB689AB27B68DBB2084611461A4642
:100F800008F00AFFFB689BB2063399B2BB689AB2BD
:100F90007B68DBB2084611461A4608F0FDFEFB6886
:100FA0009BB207339AB2BB689BB210461946002227
:100FB00008F0F2FE1037BD4680BD00BF80B584B09A
:100FC00000AFF860B9607A60FB689AB2BB689BB208
:100FD00010461946002208F0DFFEFB689BB2013381
:100FE0009AB2BB689BB210461946002208F0D4FEA4
:100FF000FB689BB202339AB2BB689BB2104619469B
:10100000002208F0C9FEFB689BB203339AB2BB68AA
:101010009BB210461946002208F0BEFEFB689BB248
:10102000043399B2BB689AB27B68DBB208461146BA
:101030001A4608F0B1FEFB689BB205339AB2BB6852
:101040009BB210461946002208F0A6FEFB689BB230
:1010500006339AB2BB689BB210461946002208F0CC
:101060009BFEFB689BB207339AB2BB689BB21046EB
:101070001946002208F090FE1037BD4680BD00BF23
:1010800080B584B000AFF860B9607A60FB689AB24E
:10109000BB689BB210461946002208F07DFEFB6833
:1010A0009BB201339AB2BB689BB21046194600222C
:1010B00008F072FEFB689BB202339AB2BB689BB227
:1010C00010461946002208F067FEFB689BB2033306
:1010D0009AB2BB689BB210461946002208F05CFE2B
:1010E000FB689BB2043399B2BB689AB27B68DBB2EF
:1010F000084611461A4608F04FFEFB689BB20533BE
:101100009AB2BB689BB210461946002208F044FE12
:10111000FB689BB2063399B2BB689AB27B68DBB2BC
:10112000084611461A4608F037FEFB689BB20733A3
:101130009AB2BB689BB210461946002208F02CFEFA
:101140001037BD4680BD00BF80B584B000AFF860E9
:10115000B9607A60FB689AB2BB689BB210461946C8
:10116000002208F019FEFB689BB201339AB2BB68FB
:101170009BB210461946002208F00EFEFB689BB297
:1011800002339AB2BB689BB210461946002208F09F
:1011900003FEFB689BB203339AB2BB689BB2104656
:1011A0001946002208F0F8FDFB689BB2043399B29F
:1011B000BB689AB27B68DBB2084611461A4608F053
:1011C000EBFDFB689BB2053399B2BB689AB27B68B2
:1011D000DBB2084611461A4608F0DEFDFB689BB2FA
:1011E00006339AB2BB689BB210461946002208F03B
:1011F000D3FDFB689BB207339AB2BB689BB2104623
:101200001946002208F0C8FD1037BD4680BD00BF5A
:1012100080B584B000AFF860B9607A60FB689AB2BC
:10122000BB689BB210461946002208F0B5FDFB686A
:101230009BB201339AB2BB689BB21046194600229A
:1012400008F0AAFDFB689BB202339AB2BB689BB25E
:1012500010461946002208F09FFDFB689BB203333D
:1012600099B2BB689AB27B68DBB2084611461A464F
:1012700008F092FDFB689BB204339AB2BB689BB244
:1012800010461946002208F087FDFB689BB2053323
:101290009AB2BB689BB210461946002208F07CFD4A
:1012A000FB689BB206339AB2BB689BB210461946E4
:1012B000002208F071FDFB689BB207339AB2BB684D
:1012C0009BB210461946002208F066FD1037BD4655
:1012D00080BD00BF80B584B000AFF860B9607A60AF
:1012E000FB689AB2BB689BB210461946002208F010
:1012F00053FDFB689BB201339AB2BB689BB21046A8
:101300001946002208F048FDFB689BB202339AB2EE
:10131000BB689BB210461946002208F03DFDFB68F1
:101320009BB2033399B2BB689AB27B68DBB20846C2
:1013300011461A4608F030FDFB689BB204339AB29E
:10134000BB689BB210461946002208F025FDFB68D9
:101350009BB205339AB2BB689BB210461946002275
:1013600008F01AFDFB689BB206339AB2BB689BB2C9
:1013700010461946002208F00FFDFB689BB20733A8
:1013800099B2BB689AB27B68DBB2084611461A462E
:1013900008F002FD1037BD4680BD00BF80B584B0A7
:1013A00000AFF860B9607A60FB689AB2BB689BB224
:1013B00010461946002208F0EFFCFB689BB201338F
:1013C0009AB2BB689BB210461946002208F0E4FCB2
:1013D000FB689BB202339AB2BB689BB210461946B7
:1013E000002208F0D9FCFB689BB2033399B2BB68BA
:1013F0009AB27B68DBB2084611461A4608F0CCFC6C
:10140000FB689BB204339AB2BB689BB21046194684
:10141000002208F0C1FCFB689BB205339AB2BB689E
:101420009BB210461946002208F0B6FCFB689BB23E
:10143000063399B2BB689AB27B68DBB208461146A4
:101440001A4608F0A9FCFB689BB207339AB2BB6846
:101450009BB210461946002208F09EFC1037BD468C
:1014600080BD00BF80B584B000AFF860B9607A601D
:10147000FB689AB2BB689BB210461946002208F07E
:101480008BFCFB689BB201339AB2BB689BB21046DF
:101490001946002208F080FCFB689BB202339AB226
:1014A000BB689BB210461946002208F075FCFB6829
:1014B0009BB2033399B2BB689AB27B68DBB2084631
:1014C00011461A4608F068FCFB689BB204339AB2D6
:1014D000BB689BB210461946002208F05DFCFB6811
:1014E0009BB2053399B2BB689AB27B68DBB20846FF
:1014F00011461A4608F050FCFB689BB206339AB2BC
:10150000BB689BB210461946002208F045FCFB68F8
:101510009BB207339AB2BB689BB2104619460022B1
:1015200008F03AFC1037BD4680BD00BF80B584B0DE
:1015300000AFF860B9607A60FB689AB2BB689BB292
:1015400010461946002208F027FCFB689BB20133C5
:101550009AB2BB689BB210461946002208F01CFCE8
:10156000FB689BB202339AB2BB689BB21046194625
:10157000002208F011FCFB689BB2033399B2BB68F0
:101580009AB27B68DBB2084611461A4608F004FCA2
:10159000FB689BB2043399B2BB689AB27B68DBB23A
:1015A000084611461A4608F0F7FBFB689BB2053364
:1015B0009AB2BB689BB210461946002208F0ECFBB9
:1015C000FB689BB206339AB2BB689BB210461946C1
:1015D000002208F0E1FBFB689BB207339AB2BB68BC
:1015E0009BB210461946002208F0D6FB1037BD46C4
:1015F00080BD00BF80B584B000AFF860B9607A608C
:10160000FB689AB2BB689BB210461946002208F0EC
:10161000C3FBFB689BB201339AB2BB689BB2104616
:101620001946002208F0B8FBFB689BB202339AB25D
:10163000BB689BB210461946002208F0ADFBFB6860
:101640009BB2033399B2BB689AB27B68DBB208469F
:1016500011461A4608F0A0FBFB689BB2043399B20E
:10166000BB689AB27B68DBB2084611461A4608F09E
:1016700093FBFB689BB2053399B2BB689AB27B6857
:10168000DBB2084611461A4608F086FBFB689BB29F
:1016900006339AB2BB689BB210461946002208F086
:1016A0007BFBFB689BB207339AB2BB689BB21046C8
:1016B0001946002208F070FB1037BD4680BD00BF00
:1016C00080B584B000AFF860B9607A60FB689AB208
:1016D000BB689BB210461946002208F05DFBFB6810
:1016E0009BB201339AB2BB689BB2104619460022E6
:1016F00008F052FBFB689BB202339AB2BB689BB204
:1017000010461946002208F047FBFB689BB20333E2
:1017100099B2BB689AB27B68DBB2084611461A469A
:1017200008F03AFBFB689BB2043399B2BB689AB2EB
:101730007B68DBB2084611461A4608F02DFBFB68B1
:101740009BB2053399B2BB689AB27B68DBB208469C
:1017500011461A4608F020FBFB689BB2063399B28B
:10176000BB689AB27B68DBB2084611461A4608F09D
:1017700013FBFB689BB207339AB2BB689BB210465F
:101780001946002208F008FB1037BD4680BD00BF97
:1017900080B584B000AFF860B9607A60FB689AB237
:1017A000BB689BB210461946002208F0F5FAFB68A8
:1017B0009BB201339AB2BB689BB210461946002215
:1017C00008F0EAFAFB689BB202339AB2BB689BB29C
:1017D00010461946002208F0DFFAFB689BB203337B
:1017E00099B2BB689AB27B68DBB2084611461A46CA
:1017F00008F0D2FAFB689BB2043399B2BB689AB284
:101800007B68DBB2084611461A4608F0C5FAFB6849
:101810009BB2053399B2BB689AB27B68DBB20846CB
:1018200011461A4608F0B8FAFB689BB2063399B223
:10183000BB689AB27B68DBB2084611461A4608F0CC
:10184000ABFAFB689BB2073399B2BB689AB27B686C
:10185000DBB2084611461A4608F09EFA1037BD461C
:1018600080BD00BF80B584B000AFF860B9607A6019
:10187000FB689AB2BB689BB210461946002208F07A
:101880008BFAFB689BB201339AB2BB689BB21046DD
:101890001946002208F080FAFB689BB2023399B225
:1018A000BB689AB27B68DBB2084611461A4608F05C
:1018B00073FAFB689BB203339AB2BB689BB21046C3
:1018C0001946002208F068FAFB689BB204339AB20A
:1018D000BB689BB210461946002208F05DFAFB680F
:1018E0009BB205339AB2BB689BB2104619460022E0
:1018F00008F052FAFB689BB206339AB2BB689BB2FF
:1019000010461946002208F047FAFB689BB20733DD
:101910009AB2BB689BB210461946002208F03CFA06
:101920001037BD4680BD00BF80B584B000AFF86001
:10193000B9607A60FB689AB2BB689BB210461946E0
:10194000002208F029FAFB689BB201339AB2BB6807
:101950009BB210461946002208F01EFAFB689BB2A3
:10196000023399B2BB689AB27B68DBB20846114673
:101970001A4608F011FAFB689BB203339AB2BB68AF
:101980009BB210461946002208F006FAFB689BB28B
:1019900004339AB2BB689BB210461946002208F085
:1019A000FBF9FB689BB205339AB2BB689BB2104649
:1019B0001946002208F0F0F9FB689BB206339AB290
:1019C000BB689BB210461946002208F0E5F9FB6897
:1019D0009BB2073399B2BB689AB27B68DBB2084608
:1019E00011461A4608F0D8F91037BD4680BD00BF31
:1019F00080B584B000AFF860B9607A60FB689AB2D5
:101A0000BB689BB210461946002208F0C5F9FB6876
:101A10009BB201339AB2BB689BB2104619460022B2
:101A200008F0BAF9FB689BB2023399B2BB689AB26C
:101A30007B68DBB2084611461A4608F0ADF9FB6830
:101A40009BB203339AB2BB689BB210461946002280
:101A500008F0A2F9FB689BB204339AB2BB689BB250
:101A600010461946002208F097F9FB689BB205332F
:101A70009AB2BB689BB210461946002208F08CF956
:101A8000FB689BB2063399B2BB689AB27B68DBB243
:101A9000084611461A4608F07FF9FB689BB20733E7
:101AA0009AB2BB689BB210461946002208F074F93E
:101AB0001037BD4680BD00BF80B584B000AFF86070
:101AC000B9607A60FB689AB2BB689BB2104619464F
:101AD000002208F061F9FB689BB201339AB2BB683F
:101AE0009BB210461946002208F056F9FB689BB2DB
:101AF000023399B2BB689AB27B68DBB208461146E2
:101B00001A4608F049F9FB689BB203339AB2BB68E6
:101B10009BB210461946002208F03EF9FB689BB2C2
:101B200004339AB2BB689BB210461946002208F0F3
:101B300033F9FB689BB2053399B2BB689AB27B68F4
:101B4000DBB2084611461A4608F026F9FB689BB23C
:101B500006339AB2BB689BB210461946002208F0C1
:101B60001BF9FB689BB207339AB2BB689BB2104665
:101B70001946002208F010F91037BD4680BD00BF9D
:101B800080B584B000AFF860B9607A60FB689AB243
:101B9000BB689BB210461946002208F0FDF8FB68AE
:101BA0009BB201339AB2BB689BB210461946002221
:101BB00008F0F2F8FB689BB2023399B2BB689AB2A4
:101BC0007B68DBB2084611461A4608F0E5F8FB6868
:101BD0009BB203339AB2BB689BB2104619460022EF
:101BE00008F0DAF8FB689BB2043399B2BB689AB28A
:101BF0007B68DBB2084611461A4608F0CDF8FB6850
:101C00009BB205339AB2BB689BB2104619460022BC
:101C100008F0C2F8FB689BB206339AB2BB689BB26D
:101C200010461946002208F0B7F8FB689BB207334C
:101C30009AB2BB689BB210461946002208F0ACF875
:101C40001037BD4680BD00BF80B584B000AFF860DE
:101C5000B9607A60FB689AB2BB689BB210461946BD
:101C6000002208F099F8FB689BB201339AB2BB6876
:101C70009BB210461946002208F08EF8FB689BB212
:101C8000023399B2BB689AB27B68DBB20846114650
:101C90001A4608F081F8FB689BB2033399B2BB681F
:101CA0009AB27B68DBB2084611461A4608F074F80F
:101CB000FB689BB204339AB2BB689BB210461946CC
:101CC000002208F069F8FB689BB205339AB2BB6842
:101CD0009BB210461946002208F05EF8FB689BB2E2
:101CE00006339AB2BB689BB210461946002208F030
:101CF00053F8FB689BB207339AB2BB689BB210469D
:101D00001946002208F048F81037BD4680BD00BFD4
:101D100080B584B000AFF860B9607A60FB689AB2B1
:101D2000BB689BB210461946002208F035F8FB68E4
:101D30009BB201339AB2BB689BB21046194600228F
:101D400008F02AF8FB689BB2023399B2BB689AB2DA
:101D50007B68DBB2084611461A4608F01DF8FB689E
:101D60009BB2033399B2BB689AB27B68DBB2084678
:101D700011461A4608F010F8FB689BB204339AB279
:101D8000BB689BB210461946002208F005F8FB68B4
:101D90009BB205339AB2BB689BB21046194600222B
:101DA00007F0FAFFFB689BB206339AB2BB689BB29E
:101DB00010461946002207F0EFFFFB689BB207337D
:101DC00099B2BB689AB27B68DBB2084611461A46E4
:101DD00007F0E2FF1037BD4680BD00BF80B584B07C
:101DE00000AFF860B9607A60FB689AB2BB689BB2DA
:101DF00010461946002207F0CFFFFB689BB2013363
:101E00009AB2BB689BB210461946002207F0C4FF85
:101E1000FB689BB2023399B2BB689AB27B68DBB2B3
:101E2000084611461A4607F0B7FFFB689BB203331A
:101E300099B2BB689AB27B68DBB2084611461A4673
:101E400007F0AAFFFB689BB204339AB2BB689BB24F
:101E500010461946002207F09FFFFB689BB205332E
:101E600099B2BB689AB27B68DBB2084611461A4643
:101E700007F092FFFB689BB2063399B2BB689AB237
:101E80007B68DBB2084611461A4607F085FFFB68FF
:101E90009BB207339AB2BB689BB210461946002228
:101EA00007F07AFF1037BD4680BD00BF80B584B013
:101EB00000AFF860B9607A60FB689AB2BB689BB209
:101EC00010461946002207F067FFFB689BB20133FA
:101ED0009AB2BB689BB210461946002207F05CFF1D
:101EE000FB689BB2023399B2BB689AB27B68DBB2E3
:101EF000084611461A4607F04FFFFB689BB20333B2
:101F000099B2BB689AB27B68DBB2084611461A46A2
:101F100007F042FFFB689BB2043399B2BB689AB2E8
:101F20007B68DBB2084611461A4607F035FFFB68AE
:101F30009BB205339AB2BB689BB210461946002289
:101F400007F02AFFFB689BB206339AB2BB689BB2CC
:101F500010461946002207F01FFFFB689BB20733AB
:101F60009AB2BB689BB210461946002207F014FFD4
:101F70001037BD4680BD00BF80B584B000AFF860AB
:101F8000B9607A60FB689AB2BB689BB2104619468A
:101F9000002207F001FFFB689BB201339AB2BB68D5
:101FA0009BB210461946002207F0F6FEFB689BB272
:101FB000023399B2BB689AB27B68DBB2084611461D
:101FC0001A4607F0E9FEFB689BB2033399B2BB687F
:101FD0009AB27B68DBB2084611461A4607F0DCFE6F
:101FE000FB689BB2043399B2BB689AB27B68DBB2E0
:101FF000084611461A4607F0CFFEFB689BB2053330
:1020000099B2BB689AB27B68DBB2084611461A46A1
:1020100007F0C2FEFB689BB206339AB2BB689BB264
:1020200010461946002207F0B7FEFB689BB2073343
:102030009AB2BB689BB210461946002207F0ACFE6C
:102040001037BD4680BD00BF80B584B000AFF860DA
:10205000B9607A60FB689AB2BB689BB210461946B9
:10206000002207F099FEFB689BB201339AB2BB686D
:102070009BB210461946002207F08EFEFB689BB209
:10208000023399B2BB689AB27B68DBB2084611464C
:102090001A4607F081FEFB689BB2033399B2BB6816
:1020A0009AB27B68DBB2084611461A4607F074FE06
:1020B000FB689BB2043399B2BB689AB27B68DBB20F
:1020C000084611461A4607F067FEFB689BB20533C7
:1020D00099B2BB689AB27B68DBB2084611461A46D1
:1020E00007F05AFEFB689BB2063399B2BB689AB2FE
:1020F0007B68DBB2084611461A4607F04DFEFB68C6
:102100009BB207339AB2BB689BB2104619460022B5
:1021100007F042FE1037BD4680BD00BF80B584B0D9
:1021200000AFF860B9607A60FB689AB2BB689BB296
:1021300010461946002207F02FFEFB689BB20133C0
:1021400099B2BB689AB27B68DBB2084611461A4660
:1021500007F022FEFB689BB202339AB2BB689BB2C7
:1021600010461946002207F017FEFB689BB20333A6
:102170009AB2BB689BB210461946002207F00CFECB
:10218000FB689BB204339AB2BB689BB210461946F7
:10219000002207F001FEFB689BB205339AB2BB68D0
:1021A0009BB210461946002207F0F6FDFB689BB271
:1021B00006339AB2BB689BB210461946002207F05C
:1021C000EBFDFB689BB207339AB2BB689BB210462B
:1021D0001946002207F0E0FD1037BD4680BD00BF64
:1021E00080B584B000AFF860B9607A60FB689AB2DD
:1021F000BB689BB210461946002207F0CDFDFB6874
:102200009BB2013399B2BB689AB27B68DBB20846D5
:1022100011461A4607F0C0FDFB689BB202339AB222
:10222000BB689BB210461946002207F0B5FDFB685B
:102230009BB203339AB2BB689BB210461946002288
:1022400007F0AAFDFB689BB204339AB2BB689BB24D
:1022500010461946002207F09FFDFB689BB205332C
:102260009AB2BB689BB210461946002207F094FD53
:10227000FB689BB206339AB2BB689BB21046194604
:10228000002207F089FDFB689BB2073399B2BB6857
:102290009AB27B68DBB2084611461A4607F07CFD0D
:1022A0001037BD4680BD00BF80B584B000AFF86078
:1022B000B9607A60FB689AB2BB689BB21046194657
:1022C000002207F069FDFB689BB2013399B2BB683D
:1022D0009AB27B68DBB2084611461A4607F05CFDED
:1022E000FB689BB202339AB2BB689BB21046194698
:1022F000002207F051FDFB689BB203339AB2BB6822
:102300009BB210461946002207F046FDFB689BB2BF
:1023100004339AB2BB689BB210461946002207F0FC
:102320003BFDFB689BB205339AB2BB689BB210467B
:102330001946002207F030FDFB689BB2063399B2C4
:10234000BB689AB27B68DBB2084611461A4607F0B2
:1023500023FDFB689BB207339AB2BB689BB2104661
:102360001946002207F018FD1037BD4680BD00BF9A
:1023700080B584B000AFF860B9607A60FB689AB24B
:10238000BB689BB210461946002207F005FDFB68AA
:102390009BB2013399B2BB689AB27B68DBB2084644
:1023A00011461A4607F0F8FCFB689BB202339AB25A
:1023B000BB689BB210461946002207F0EDFCFB6893
:1023C0009BB203339AB2BB689BB2104619460022F7
:1023D00007F0E2FCFB689BB204339AB2BB689BB285
:1023E00010461946002207F0D7FCFB689BB2053364
:1023F00099B2BB689AB27B68DBB2084611461A46AE
:1024000007F0CAFCFB689BB206339AB2BB689BB26A
:1024100010461946002207F0BFFCFB689BB2073349
:102420009AB2BB689BB210461946002207F0B4FC72
:102430001037BD4680BD00BF80B584B000AFF860E6
:10244000B9607A60FB689AB2BB689BB210461946C5
:10245000002207F0A1FCFB689BB2013399B2BB6874
:102460009AB27B68DBB2084611461A4607F094FC24
:10247000FB689BB202339AB2BB689BB21046194606
:10248000002207F089FCFB689BB203339AB2BB6859
:102490009BB210461946002207F07EFCFB689BB2F7
:1024A00004339AB2BB689BB210461946002207F06B
:1024B00073FCFB689BB2053399B2BB689AB27B6828
:1024C000DBB2084611461A4607F066FCFB689BB271
:1024D00006339AB2BB689BB210461946002207F039
:1024E0005BFCFB689BB2073399B2BB689AB27B680E
:1024F000DBB2084611461A4607F04EFC1037BD46BF
:1025000080BD00BF80B584B000AFF860B9607A606C
:10251000FB689AB2BB689BB210461946002207F0CE
:102520003BFCFB689BB2013399B2BB689AB27B68F3
:10253000DBB2084611461A4607F02EFCFB689BB238
:1025400002339AB2BB689BB210461946002207F0CC
:1025500023FCFB689BB203339AB2BB689BB2104664
:102560001946002207F018FCFB689BB204339AB2AC
:10257000BB689BB210461946002207F00DFCFB68B1
:102580009BB2053399B2BB689AB27B68DBB208464E
:1025900011461A4607F000FCFB689BB2063399B25D
:1025A000BB689AB27B68DBB2084611461A4607F050
:1025B000F3FBFB689BB207339AB2BB689BB2104631
:1025C0001946002207F0E8FB1037BD4680BD00BF6A
:1025D00080B584B000AFF860B9607A60FB689AB2E9
:1025E000BB689BB210461946002207F0D5FBFB687A
:1025F0009BB2013399B2BB689AB27B68DBB20846E2
:1026000011461A4607F0C8FBFB689BB202339AB228
:10261000BB689BB210461946002207F0BDFBFB6861
:102620009BB203339AB2BB689BB210461946002294
:1026300007F0B2FBFB689BB204339AB2BB689BB253
:1026400010461946002207F0A7FBFB689BB2053332
:1026500099B2BB689AB27B68DBB2084611461A464B
:1026600007F09AFBFB689BB2063399B2BB689AB23B
:102670007B68DBB2084611461A4607F08DFBFB6803
:102680009BB2073399B2BB689AB27B68DBB208464B
:1026900011461A4607F080FB1037BD4680BD00BFCB
:1026A00080B584B000AFF860B9607A60FB689AB218
:1026B000BB689BB210461946002207F06DFBFB6811
:1026C0009BB2013399B2BB689AB27B68DBB2084611
:1026D00011461A4607F060FBFB689BB202339AB2C0
:1026E000BB689BB210461946002207F055FBFB68F9
:1026F0009BB203339AB2BB689BB2104619460022C4
:1027000007F04AFBFB689BB2043399B2BB689AB2EC
:102710007B68DBB2084611461A4607F03DFBFB68B2
:102720009BB205339AB2BB689BB210461946002291
:1027300007F032FBFB689BB206339AB2BB689BB2D0
:1027400010461946002207F027FBFB689BB20733AF
:102750009AB2BB689BB210461946002207F01CFBD8
:102760001037BD4680BD00BF80B584B000AFF860B3
:10277000B9607A60FB689AB2BB689BB21046194692
:10278000002207F009FBFB689BB2013399B2BB68DA
:102790009AB27B68DBB2084611461A4607F0FCFA8B
:1027A000FB689BB202339AB2BB689BB210461946D3
:1027B000002207F0F1FAFB689BB203339AB2BB68C0
:1027C0009BB210461946002207F0E6FAFB689BB25E
:1027D000043399B2BB689AB27B68DBB208461146F3
:1027E0001A4607F0D9FAFB689BB205339AB2BB6868
:1027F0009BB210461946002207F0CEFAFB689BB246
:1028000006339AB2BB689BB210461946002207F005
:10281000C3FAFB689BB2073399B2BB689AB27B6874
:10282000DBB2084611461A4607F0B6FA1037BD4625
:1028300080BD00BF80B584B000AFF860B9607A6039
:10284000FB689AB2BB689BB210461946002207F09B
:10285000A3FAFB689BB2013399B2BB689AB27B685A
:10286000DBB2084611461A4607F096FAFB689BB29F
:1028700002339AB2BB689BB210461946002207F099
:102880008BFAFB689BB203339AB2BB689BB21046CB
:102890001946002207F080FAFB689BB2043399B214
:1028A000BB689AB27B68DBB2084611461A4607F04D
:1028B00073FAFB689BB205339AB2BB689BB21046B1
:1028C0001946002207F068FAFB689BB2063399B2FA
:1028D000BB689AB27B68DBB2084611461A4607F01D
:1028E0005BFAFB689BB207339AB2BB689BB2104697
:1028F0001946002207F050FA1037BD4680BD00BFD0
:1029000080B584B000AFF860B9607A60FB689AB2B5
:10291000BB689BB210461946002207F03DFAFB68DF
:102920009BB2013399B2BB689AB27B68DBB20846AE
:1029300011461A4607F030FAFB689BB202339AB28E
:10294000BB689BB210461946002207F025FAFB68C7
:102950009BB203339AB2BB689BB210461946002261
:1029600007F01AFAFB689BB2043399B2BB689AB2BB
:102970007B68DBB2084611461A4607F00DFAFB6881
:102980009BB2053399B2BB689AB27B68DBB208464A
:1029900011461A4607F000FAFB689BB2063399B25B
:1029A000BB689AB27B68DBB2084611461A4607F04C
:1029B000F3F9FB689BB2073399B2BB689AB27B68A4
:1029C000DBB2084611461A4607F0E6F91037BD4655
:1029D00080BD00BF80B584B000AFF860B9607A6098
:1029E000FB689AB2BB689BB210461946002207F0FA
:1029F000D3F9FB689BB2013399B2BB689AB27B688A
:102A0000DBB2084611461A4607F0C6F9FB689BB2CE
:102A100002339AB2BB689BB210461946002207F0F7
:102A2000BBF9FB689BB2033399B2BB689AB27B686F
:102A3000DBB2084611461A4607F0AEF9FB689BB2B6
:102A400004339AB2BB689BB210461946002207F0C5
:102A5000A3F9FB689BB205339AB2BB689BB21046E0
:102A60001946002207F098F9FB689BB206339AB228
:102A7000BB689BB210461946002207F08DF9FB682F
:102A80009BB207339AB2BB689BB21046194600222C
:102A900007F082F91037BD4680BD00BF80B584B015
:102AA00000AFF860B9607A60FB689AB2BB689BB20D
:102AB00010461946002207F06FF9FB689BB20133FC
:102AC00099B2BB689AB27B68DBB2084611461A46D7
:102AD00007F062F9FB689BB202339AB2BB689BB203
:102AE00010461946002207F057F9FB689BB20333E2
:102AF00099B2BB689AB27B68DBB2084611461A46A7
:102B000007F04AF9FB689BB204339AB2BB689BB2E8
:102B100010461946002207F03FF9FB689BB20533C7
:102B20009AB2BB689BB210461946002207F034F9EE
:102B3000FB689BB2063399B2BB689AB27B68DBB282
:102B4000084611461A4607F027F9FB689BB207337F
:102B50009AB2BB689BB210461946002207F01CF9D6
:102B60001037BD4680BD00BF80B584B000AFF860AF
:102B7000B9607A60FB689AB2BB689BB2104619468E
:102B8000002207F009F9FB689BB2013399B2BB68D8
:102B90009AB27B68DBB2084611461A4607F0FCF889
:102BA000FB689BB202339AB2BB689BB210461946CF
:102BB000002207F0F1F8FB689BB2033399B2BB68BF
:102BC0009AB27B68DBB2084611461A4607F0E4F871
:102BD000FB689BB204339AB2BB689BB2104619469D
:102BE000002207F0D9F8FB689BB205339AB2BB68A4
:102BF0009BB210461946002207F0CEF8FB689BB244
:102C0000063399B2BB689AB27B68DBB208461146BC
:102C10001A4607F0C1F8FB689BB2073399B2BB684C
:102C20009AB27B68DBB2084611461A4607F0B4F840
:102C30001037BD4680BD00BF80B584B000AFF860DE
:102C4000B9607A60FB689AB2BB689BB210461946BD
:102C5000002207F0A1F8FB689BB2013399B2BB6870
:102C60009AB27B68DBB2084611461A4607F094F820
:102C7000FB689BB202339AB2BB689BB210461946FE
:102C8000002207F089F8FB689BB2033399B2BB6856
:102C90009AB27B68DBB2084611461A4607F07CF808
:102CA000FB689BB204339AB2BB689BB210461946CC
:102CB000002207F071F8FB689BB2053399B2BB683C
:102CC0009AB27B68DBB2084611461A4607F064F8F0
:102CD000FB689BB206339AB2BB689BB2104619469A
:102CE000002207F059F8FB689BB2073399B2BB6822
:102CF0009AB27B68DBB2084611461A4607F04CF8D8
:102D00001037BD4680BD00BF80B584B000AFF8600D
:102D1000B9607A60FB689AB2BB689BB210461946EC
:102D2000002207F039F8FB689BB2013399B2BB6807
:102D30009AB27B68DBB2084611461A4607F02CF8B7
:102D4000FB689BB202339AB2BB689BB2104619462D
:102D5000002207F021F8FB689BB2033399B2BB68ED
:102D60009AB27B68DBB2084611461A4607F014F89F
:102D7000FB689BB2043399B2BB689AB27B68DBB242
:102D8000084611461A4607F007F8FB689BB2053360
:102D90009AB2BB689BB210461946002206F0FCFFAF
:102DA000FB689BB206339AB2BB689BB210461946C9
:102DB000002206F0F1FFFB689BB2073399B2BB68B3
:102DC0009AB27B68DBB2084611461A4606F0E4FF69
:102DD0001037BD4680BD00BF80B584B000AFF8603D
:102DE000B9607A60FB689AB2BB689BB2104619461C
:102DF000002206F0D1FFFB689BB2013399B2BB6899
:102E00009AB27B68DBB2084611461A4606F0C4FF48
:102E1000FB689BB2023399B2BB689AB27B68DBB2A3
:102E2000084611461A4606F0B7FFFB689BB203330B
:102E30009AB2BB689BB210461946002206F0ACFF5E
:102E4000FB689BB204339AB2BB689BB2104619462A
:102E5000002206F0A1FFFB689BB205339AB2BB6863
:102E60009BB210461946002206F096FFFB689BB203
:102E700006339AB2BB689BB210461946002206F090
:102E80008BFFFB689BB207339AB2BB689BB21046BC
:102E90001946002206F080FF1037BD4680BD00BFF6
:102EA00080B584B000AFF860B9607A60FB689AB210
:102EB000BB689BB210461946002206F06DFFFB6806
:102EC0009BB2013399B2BB689AB27B68DBB2084609
:102ED00011461A4606F060FFFB689BB2023399B2B6
:102EE000BB689AB27B68DBB2084611461A4606F008
:102EF00053FFFB689BB203339AB2BB689BB2104688
:102F00001946002206F048FFFB689BB204339AB2D0
:102F1000BB689BB210461946002206F03DFFFB68D5
:102F20009BB205339AB2BB689BB210461946002289
:102F300006F032FFFB689BB2063399B2BB689AB2C7
:102F40007B68DBB2084611461A4606F025FFFB688F
:102F50009BB207339AB2BB689BB210461946002257
:102F600006F01AFF1037BD4680BD00BF80B584B0A3
:102F700000AFF860B9607A60FB689AB2BB689BB238
:102F800010461946002206F007FFFB689BB201338A
:102F900099B2BB689AB27B68DBB2084611461A4602
:102FA00006F0FAFEFB689BB2023399B2BB689AB294
:102FB0007B68DBB2084611461A4606F0EDFEFB6858
:102FC0009BB203339AB2BB689BB2104619460022EB
:102FD00006F0E2FEFB689BB204339AB2BB689BB278
:102FE00010461946002206F0D7FEFB689BB2053357
:102FF0009AB2BB689BB210461946002206F0CCFE7E
:10300000FB689BB2063399B2BB689AB27B68DBB2AD
:10301000084611461A4606F0BFFEFB689BB207330E
:1030200099B2BB689AB27B68DBB2084611461A4671
:1030300006F0B2FE1037BD4680BD00BF80B584B03B
:1030400000AFF860B9607A60FB689AB2BB689BB267
:1030500010461946002206F09FFEFB689BB2013322
:1030600099B2BB689AB27B68DBB2084611461A4631
:1030700006F092FEFB689BB2023399B2BB689AB22B
:103080007B68DBB2084611461A4606F085FEFB68EF
:103090009BB203339AB2BB689BB21046194600221A
:1030A00006F07AFEFB689BB204339AB2BB689BB20F
:1030B00010461946002206F06FFEFB689BB20533EE
:1030C00099B2BB689AB27B68DBB2084611461A46D1
:1030D00006F062FEFB689BB2063399B2BB689AB2F7
:1030E0007B68DBB2084611461A4606F055FEFB68BF
:1030F0009BB207339AB2BB689BB2104619460022B6
:1031000006F04AFE1037BD4680BD00BF80B584B0D2
:1031100000AFF860B9607A60FB689AB2BB689BB296
:1031200010461946002206F037FEFB689BB20133B9
:1031300099B2BB689AB27B68DBB2084611461A4660
:1031400006F02AFEFB689BB2023399B2BB689AB2C2
:103150007B68DBB2084611461A4606F01DFEFB6886
:103160009BB203339AB2BB689BB210461946002249
:1031700006F012FEFB689BB204339AB2BB689BB2A6
:1031800010461946002206F007FEFB689BB2053385
:1031900099B2BB689AB27B68DBB2084611461A4600
:1031A00006F0FAFDFB689BB2063399B2BB689AB28F
:1031B0007B68DBB2084611461A4606F0EDFDFB6857
:1031C0009BB2073399B2BB689AB27B68DBB2084600
:1031D00011461A4606F0E0FD1037BD4680BD00BF1F
:1031E00080B584B000AFF860B9607A60FB689AB2CD
:1031F000BB689BB210461946002206F0CDFDFB6865
:103200009BB2013399B2BB689AB27B68DBB20846C5
:1032100011461A4606F0C0FDFB689BB2023399B214
:10322000BB689AB27B68DBB2084611461A4606F0C4
:10323000B3FDFB689BB203339AB2BB689BB21046E6
:103240001946002206F0A8FDFB689BB2043399B230
:10325000BB689AB27B68DBB2084611461A4606F094
:103260009BFDFB689BB205339AB2BB689BB21046CC
:103270001946002206F090FDFB689BB2063399B216
:10328000BB689AB27B68DBB2084611461A4606F064
:1032900083FDFB689BB2073399B2BB689AB27B6827
:1032A000DBB2084611461A4606F076FD1037BD46D9
:1032B00080BD00BF80B584B000AFF860B9607A60AF
:1032C000FB689AB2BB689BB210461946002206F012
:1032D00063FDFB689BB2013399B2BB689AB27B680D
:1032E000DBB2084611461A4606F056FDFB689BB253
:1032F000023399B2BB689AB27B68DBB208461146CA
:103300001A4606F049FDFB689BB203339AB2BB68CC
:103310009BB210461946002206F03EFDFB689BB2A8
:10332000043399B2BB689AB27B68DBB20846114697
:103330001A4606F031FDFB689BB2053399B2BB68B3
:103340009AB27B68DBB2084611461A4606F024FDA5
:10335000FB689BB206339AB2BB689BB21046194613
:10336000002206F019FDFB689BB207339AB2BB68D6
:103370009BB210461946002206F00EFD1037BD46DE
:1033800080BD00BF80B584B000AFF860B9607A60DE
:10339000FB689AB2BB689BB210461946002206F041
:1033A000FBFCFB689BB2013399B2BB689AB27B68A5
:1033B000DBB2084611461A4606F0EEFCFB689BB2EB
:1033C000023399B2BB689AB27B68DBB208461146F9
:1033D0001A4606F0E1FCFB689BB203339AB2BB6865
:1033E0009BB210461946002206F0D6FCFB689BB241
:1033F000043399B2BB689AB27B68DBB208461146C7
:103400001A4606F0C9FCFB689BB2053399B2BB684B
:103410009AB27B68DBB2084611461A4606F0BCFC3D
:10342000FB689BB2063399B2BB689AB27B68DBB289
:10343000084611461A4606F0AFFCFB689BB20733FC
:103440009AB2BB689BB210461946002206F0A4FC53
:103450001037BD4680BD00BF80B584B000AFF860B6
:10346000B9607A60FB689AB2BB689BB21046194695
:10347000002206F091FCFB689BB2013399B2BB6855
:103480009AB27B68DBB2084611461A4606F084FC05
:10349000FB689BB2023399B2BB689AB27B68DBB21D
:1034A000084611461A4606F077FCFB689BB20333C8
:1034B00099B2BB689AB27B68DBB2084611461A46DD
:1034C00006F06AFCFB689BB204339AB2BB689BB2FD
:1034D00010461946002206F05FFCFB689BB20533DC
:1034E0009AB2BB689BB210461946002206F054FC03
:1034F000FB689BB206339AB2BB689BB21046194672
:10350000002206F049FCFB689BB207339AB2BB6805
:103510009BB210461946002206F03EFC1037BD460D
:1035200080BD00BF80B584B000AFF860B9607A603C
:10353000FB689AB2BB689BB210461946002206F09F
:103540002BFCFB689BB2013399B2BB689AB27B68D3
:10355000DBB2084611461A4606F01EFCFB689BB219
:10356000023399B2BB689AB27B68DBB20846114657
:103570001A4606F011FCFB689BB2033399B2BB6894
:103580009AB27B68DBB2084611461A4606F004FC84
:10359000FB689BB204339AB2BB689BB210461946D3
:1035A000002206F0F9FBFB689BB2053399B2BB68B9
:1035B0009AB27B68DBB2084611461A4606F0ECFB6D
:1035C000FB689BB2063399B2BB689AB27B68DBB2E8
:1035D000084611461A4606F0DFFBFB689BB207332C
:1035E0009AB2BB689BB210461946002206F0D4FB83
:1035F0001037BD4680BD00BF80B584B000AFF86015
:10360000B9607A60FB689AB2BB689BB210461946F3
:10361000002206F0C1FBFB689BB2013399B2BB6884
:103620009AB27B68DBB2084611461A4606F0B4FB34
:10363000FB689BB2023399B2BB689AB27B68DBB27B
:10364000084611461A4606F0A7FBFB689BB20333F7
:1036500099B2BB689AB27B68DBB2084611461A463B
:1036600006F09AFBFB689BB2043399B2BB689AB22E
:103670007B68DBB2084611461A4606F08DFBFB68F4
:103680009BB205339AB2BB689BB210461946002222
:1036900006F082FBFB689BB206339AB2BB689BB212
:1036A00010461946002206F077FBFB689BB20733F1
:1036B0009AB2BB689BB210461946002206F06CFB1A
:1036C0001037BD4680BD00BF80B584B000AFF86044
:1036D000B9607A60FB689AB2BB689BB21046194623
:1036E000002206F059FBFB689BB2013399B2BB681C
:1036F0009AB27B68DBB2084611461A4606F04CFBCC
:10370000FB689BB2023399B2BB689AB27B68DBB2AA
:10371000084611461A4606F03FFBFB689BB203338E
:1037200099B2BB689AB27B68DBB2084611461A466A
:1037300006F032FBFB689BB2043399B2BB689AB2C5
:103740007B68DBB2084611461A4606F025FBFB688B
:103750009BB2053399B2BB689AB27B68DBB208466C
:1037600011461A4606F018FBFB689BB206339AB264
:10377000BB689BB210461946002206F00DFBFB68A1
:103780009BB207339AB2BB689BB21046194600221F
:1037900006F002FB1037BD4680BD00BF80B584B087
:1037A00000AFF860B9607A60FB689AB2BB689BB200
:1037B00010461946002206F0EFFAFB689BB201336F
:1037C00099B2BB689AB27B68DBB2084611461A46CA
:1037D00006F0E2FAFB689BB2023399B2BB689AB278
:1037E0007B68DBB2084611461A4606F0D5FAFB683C
:1037F0009BB2033399B2BB689AB27B68DBB20846CE
:1038000011461A4606F0C8FAFB689BB2043399B217
:10381000BB689AB27B68DBB2084611461A4606F0CE
:10382000BBFAFB689BB2053399B2BB689AB27B685E
:10383000DBB2084611461A4606F0AEFAFB689BB2A8
:10384000063399B2BB689AB27B68DBB20846114670
:103850001A4606F0A1FAFB689BB207339AB2BB681E
:103860009BB210461946002206F096FA1037BD4664
:1038700080BD00BF80B584B000AFF860B9607A60E9
:10388000FB689AB2BB689BB210461946002206F04C
:1038900083FAFB689BB2013399B2BB689AB27B682A
:1038A000DBB2084611461A4606F076FAFB689BB270
:1038B000023399B2BB689AB27B68DBB20846114604
:1038C0001A4606F069FAFB689BB2033399B2BB68EB
:1038D0009AB27B68DBB2084611461A4606F05CFADB
:1038E000FB689BB2043399B2BB689AB27B68DBB2C7
:1038F000084611461A4606F04FFAFB689BB205339C
:1039000099B2BB689AB27B68DBB2084611461A4688
:1039100006F042FAFB689BB2063399B2BB689AB2D2
:103920007B68DBB2084611461A4606F035FAFB689A
:103930009BB2073399B2BB689AB27B68DBB2084688
:1039400011461A4606F028FA1037BD4680BD00BF62
:1039500080B584B000AFF860B9607A60FB6899B256
:10396000BB689AB27B68DBB2084611461A4606F07D
:1039700013FAFB689BB201339AB2BB689BB2104644
:103980001946002206F008FAFB689BB202339AB28D
:10399000BB689BB210461946002206F0FDF9FB6891
:1039A0009BB203339AB2BB689BB210461946002201
:1039B00006F0F2F9FB689BB204339AB2BB689BB283
:1039C00010461946002206F0E7F9FB689BB2053362
:1039D0009AB2BB689BB210461946002206F0DCF989
:1039E000FB689BB2063399B2BB689AB27B68DBB2C4
:1039F000084611461A4606F0CFF9FB689BB207331A
:103A00009AB2BB689BB210461946002206F0C4F970
:103A10001037BD4680BD00BF80B584B000AFF860F0
:103A2000B9607A60FB6899B2BB689AB27B68DBB216
:103A3000084611461A4606F0AFF9FB689BB20133FF
:103A40009AB2BB689BB210461946002206F0A4F950
:103A5000FB689BB202339AB2BB689BB21046194610
:103A6000002206F099F9FB689BB203339AB2BB6857
:103A70009BB210461946002206F08EF9FB689BB2F5
:103A800004339AB2BB689BB210461946002206F076
:103A900083F9FB689BB2053399B2BB689AB27B6825
:103AA000DBB2084611461A4606F076F9FB689BB26F
:103AB00006339AB2BB689BB210461946002206F044
:103AC0006BF9FB689BB207339AB2BB689BB2104696
:103AD0001946002206F060F91037BD4680BD00BFD0
:103AE00080B584B000AFF860B9607A60FB6899B2C5
:103AF000BB689AB27B68DBB2084611461A4606F0EC
:103B00004BF9FB689BB201339AB2BB689BB210467B
:103B10001946002206F040F9FB689BB202339AB2C4
:103B2000BB689BB210461946002206F035F9FB68C7
:103B30009BB203339AB2BB689BB21046194600226F
:103B400006F02AF9FB689BB2043399B2BB689AB2BB
:103B50007B68DBB2084611461A4606F01DF9FB6881
:103B60009BB205339AB2BB689BB21046194600223D
:103B700006F012F9FB689BB206339AB2BB689BB29F
:103B800010461946002206F007F9FB689BB207337E
:103B90009AB2BB689BB210461946002206F0FCF8A8
:103BA0001037BD4680BD00BF80B584B000AFF8605F
:103BB000B9607A60FB6899B2BB689AB27B68DBB285
:103BC000084611461A4606F0E7F8FB689BB2013337
:103BD0009AB2BB689BB210461946002206F0DCF888
:103BE000FB689BB202339AB2BB689BB2104619467F
:103BF000002206F0D1F8FB689BB203339AB2BB688F
:103C00009BB210461946002206F0C6F8FB689BB22C
:103C1000043399B2BB689AB27B68DBB2084611469E
:103C20001A4606F0B9F8FB689BB205339AB2BB6836
:103C30009BB210461946002206F0AEF8FB689BB214
:103C400006339AB2BB689BB210461946002206F0B2
:103C5000A3F8FB689BB2073399B2BB689AB27B6842
:103C6000DBB2084611461A4606F096F81037BD46F4
:103C700080BD00BF80B584B000AFF860B9607A60E5
:103C8000FB6899B2BB689AB27B68DBB20846114602
:103C90001A4606F081F8FB689BB201339AB2BB6802
:103CA0009BB210461946002206F076F8FB689BB2DC
:103CB00002339AB2BB689BB210461946002206F046
:103CC0006BF8FB689BB203339AB2BB689BB2104699
:103CD0001946002206F060F8FB689BB2043399B2E3
:103CE000BB689AB27B68DBB2084611461A4606F0FA
:103CF00053F8FB689BB2053399B2BB689AB27B68F4
:103D0000DBB2084611461A4606F046F8FB689BB23D
:103D100006339AB2BB689BB210461946002206F0E1
:103D20003BF8FB689BB207339AB2BB689BB2104664
:103D30001946002206F030F81037BD4680BD00BF9E
:103D400080B584B000AFF860B9607A60FB6899B262
:103D5000BB689AB27B68DBB2084611461A4606F089
:103D60001BF8FB689BB201339AB2BB689BB210464A
:103D70001946002206F010F8FB689BB202339AB293
:103D8000BB689BB210461946002206F005F8FB6896
:103D90009BB2033399B2BB689AB27B68DBB2084628
:103DA00011461A4605F0F8FFFB689BB204339AB23D
:103DB000BB689BB210461946002205F0EDFFFB6878
:103DC0009BB205339AB2BB689BB2104619460022DB
:103DD00005F0E2FFFB689BB2063399B2BB689AB26A
:103DE0007B68DBB2084611461A4605F0D5FFFB6832
:103DF0009BB207339AB2BB689BB2104619460022A9
:103E000005F0CAFF1037BD4680BD00BF80B584B045
:103E100000AFF860B9607A60FB6899B2BB689AB28B
:103E20007B68DBB2084611461A4605F0B5FFFB6811
:103E30009BB201339AB2BB689BB21046194600226E
:103E400005F0AAFFFB689BB202339AB2BB689BB233
:103E500010461946002205F09FFFFB689BB2033312
:103E600099B2BB689AB27B68DBB2084611461A4623
:103E700005F092FFFB689BB2043399B2BB689AB21B
:103E80007B68DBB2084611461A4605F085FFFB68E1
:103E90009BB205339AB2BB689BB21046194600220A
:103EA00005F07AFFFB689BB206339AB2BB689BB2FF
:103EB00010461946002205F06FFFFB689BB20733DE
:103EC00099B2BB689AB27B68DBB2084611461A46C3
:103ED00005F062FF1037BD4680BD00BF80B584B0DD
:103EE00000AFF860B9607A60FB6899B2BB689AB2BB
:103EF0007B68DBB2084611461A4605F04DFFFB68A9
:103F00009BB201339AB2BB689BB21046194600229D
:103F100005F042FFFB689BB202339AB2BB689BB2CA
:103F200010461946002205F037FFFB689BB20333A9
:103F300099B2BB689AB27B68DBB2084611461A4652
:103F400005F02AFFFB689BB2043399B2BB689AB2B2
:103F50007B68DBB2084611461A4605F01DFFFB6878
:103F60009BB205339AB2BB689BB210461946002239
:103F700005F012FFFB689BB2063399B2BB689AB298
:103F80007B68DBB2084611461A4605F005FFFB6860
:103F90009BB207339AB2BB689BB210461946002207
:103FA00005F0FAFE1037BD4680BD00BF80B584B075
:103FB00000AFF860B9607A60FB6899B2BB689AB2EA
:103FC0007B68DBB2084611461A4605F0E5FEFB6841
:103FD0009BB201339AB2BB689BB2104619460022CD
:103FE00005F0DAFEFB689BB202339AB2BB689BB263
:103FF00010461946002205F0CFFEFB689BB2033342
:1040000099B2BB689AB27B68DBB2084611461A4681
:1040100005F0C2FEFB689BB2043399B2BB689AB24A
:104020007B68DBB2084611461A4605F0B5FEFB6810
:104030009BB2053399B2BB689AB27B68DBB2084683
:1040400011461A4605F0A8FEFB689BB206339AB2E9
:10405000BB689BB210461946002205F09DFEFB6826
:104060009BB207339AB2BB689BB210461946002236
:1040700005F092FE1037BD4680BD00BF80B584B00C
:1040800000AFF860B9607A60FB6899B2BB689AB219
:104090007B68DBB2084611461A4605F07DFEFB68D8
:1040A0009BB201339AB2BB689BB2104619460022FC
:1040B00005F072FEFB689BB202339AB2BB689BB2FA
:1040C00010461946002205F067FEFB689BB20333D9
:1040D00099B2BB689AB27B68DBB2084611461A46B1
:1040E00005F05AFEFB689BB2043399B2BB689AB2E2
:1040F0007B68DBB2084611461A4605F04DFEFB68A8
:104100009BB2053399B2BB689AB27B68DBB20846B2
:1041100011461A4605F040FEFB689BB206339AB280
:10412000BB689BB210461946002205F035FEFB68BD
:104130009BB2073399B2BB689AB27B68DBB2084680
:1041400011461A4605F028FE1037BD4680BD00BF57
:1041500080B584B000AFF860B9607A60FB6899B24E
:10416000BB689AB27B68DBB2084611461A4605F076
:1041700013FEFB689BB201339AB2BB689BB2104638
:104180001946002205F008FEFB689BB2023399B283
:10419000BB689AB27B68DBB2084611461A4605F046
:1041A000FBFDFB689BB203339AB2BB689BB210461F
:1041B0001946002205F0F0FDFB689BB2043399B26A
:1041C000BB689AB27B68DBB2084611461A4605F016
:1041D000E3FDFB689BB205339AB2BB689BB2104605
:1041E0001946002205F0D8FDFB689BB2063399B250
:1041F000BB689AB27B68DBB2084611461A4605F0E6
:10420000CBFDFB689BB207339AB2BB689BB21046EA
:104210001946002205F0C0FD1037BD4680BD00BF25
:1042200080B584B000AFF860B9607A60FB6899B27D
:10423000BB689AB27B68DBB2084611461A4605F0A5
:10424000ABFDFB689BB2013399B2BB689AB27B6845
:10425000DBB2084611461A4605F09EFDFB689BB28C
:1042600002339AB2BB689BB210461946002205F091
:1042700093FDFB689BB203339AB2BB689BB21046B6
:104280001946002205F088FDFB689BB204339AB200
:10429000BB689BB210461946002205F07DFDFB6805
:1042A0009BB205339AB2BB689BB2104619460022F6
:1042B00005F072FDFB689BB206339AB2BB689BB2F5
:1042C00010461946002205F067FDFB689BB20733D4
:1042D0009AB2BB689BB210461946002205F05CFDFD
:1042E0001037BD4680BD00BF80B584B000AFF86018
:1042F000B9607A60FB6899B2BB689AB27B68DBB23E
:10430000084611461A4605F047FDFB689BB201338B
:1043100099B2BB689AB27B68DBB2084611461A466E
:1043200005F03AFDFB689BB202339AB2BB689BB2C0
:1043300010461946002205F02FFDFB689BB203339F
:104340009AB2BB689BB210461946002205F024FDC4
:10435000FB689BB204339AB2BB689BB21046194605
:10436000002205F019FDFB689BB205339AB2BB68C9
:104370009BB210461946002205F00EFDFB689BB269
:10438000063399B2BB689AB27B68DBB20846114625
:104390001A4605F001FDFB689BB2073399B2BB6872
:1043A0009AB27B68DBB2084611461A4605F0F4FC67
:1043B0001037BD4680BD00BF80B584B000AFF86047
:1043C000B9607A60FB6899B2BB689AB27B68DBB26D
:1043D000084611461A4605F0DFFCFB689BB2013324
:1043E00099B2BB689AB27B68DBB2084611461A469E
:1043F00005F0D2FCFB689BB202339AB2BB689BB259
:1044000010461946002205F0C7FCFB689BB2033337
:104410009AB2BB689BB210461946002205F0BCFC5C
:10442000FB689BB204339AB2BB689BB21046194634
:10443000002205F0B1FCFB689BB2053399B2BB6862
:104440009AB27B68DBB2084611461A4605F0A4FC16
:10445000FB689BB2063399B2BB689AB27B68DBB249
:10446000084611461A4605F097FCFB689BB20733D5
:104470009AB2BB689BB210461946002205F08CFC2C
:104480001037BD4680BD00BF80B584B000AFF86076
:10449000B9607A60FB6899B2BB689AB27B68DBB29C
:1044A000084611461A4605F077FCFB689BB20133BB
:1044B00099B2BB689AB27B68DBB2084611461A46CD
:1044C00005F06AFCFB689BB202339AB2BB689BB2F0
:1044D00010461946002205F05FFCFB689BB20333CF
:1044E0009AB2BB689BB210461946002205F054FCF4
:1044F000FB689BB204339AB2BB689BB21046194664
:10450000002205F049FCFB689BB2053399B2BB68F9
:104510009AB27B68DBB2084611461A4605F03CFCAD
:10452000FB689BB2063399B2BB689AB27B68DBB278
:10453000084611461A4605F02FFCFB689BB207336C
:1045400099B2BB689AB27B68DBB2084611461A463C
:1045500005F022FC1037BD4680BD00BF80B584B099
:1045600000AFF860B9607A60FB6899B2BB689AB234
:104570007B68DBB2084611461A4605F00DFCFB6865
:104580009BB2013399B2BB689AB27B68DBB2084632
:1045900011461A4605F000FCFB689BB202339AB242
:1045A000BB689BB210461946002205F0F5FBFB687C
:1045B0009BB203339AB2BB689BB2104619460022E5
:1045C00005F0EAFBFB689BB2043399B2BB689AB270
:1045D0007B68DBB2084611461A4605F0DDFBFB6836
:1045E0009BB205339AB2BB689BB2104619460022B3
:1045F00005F0D2FBFB689BB206339AB2BB689BB254
:1046000010461946002205F0C7FBFB689BB2073332
:1046100099B2BB689AB27B68DBB2084611461A466B
:1046200005F0BAFB1037BD4680BD00BF80B584B031
:1046300000AFF860B9607A60FB6899B2BB689AB263
:104640007B68DBB2084611461A4605F0A5FBFB68FD
:104650009BB2013399B2BB689AB27B68DBB2084661
:1046600011461A4605F098FBFB689BB202339AB2DA
:10467000BB689BB210461946002205F08DFBFB6813
:104680009BB203339AB2BB689BB210461946002214
:1046900005F082FBFB689BB2043399B2BB689AB207
:1046A0007B68DBB2084611461A4605F075FBFB68CD
:1046B0009BB2053399B2BB689AB27B68DBB20846FD
:1046C00011461A4605F068FBFB689BB206339AB2A6
:1046D000BB689BB210461946002205F05DFBFB68E3
:1046E0009BB207339AB2BB689BB2104619460022B0
:1046F00005F052FB1037BD4680BD00BF80B584B0C9
:1047000000AFF860B9607A60FB6899B2BB689AB292
:104710007B68DBB2084611461A4605F03DFBFB6894
:104720009BB2013399B2BB689AB27B68DBB2084690
:1047300011461A4605F030FBFB689BB202339AB271
:10474000BB689BB210461946002205F025FBFB68AA
:104750009BB2033399B2BB689AB27B68DBB208465E
:1047600011461A4605F018FBFB689BB204339AB257
:10477000BB689BB210461946002205F00DFBFB6892
:104780009BB205339AB2BB689BB210461946002211
:1047900005F002FBFB689BB206339AB2BB689BB282
:1047A00010461946002205F0F7FAFB689BB2073362
:1047B0009AB2BB689BB210461946002205F0ECFA8B
:1047C0001037BD4680BD00BF80B584B000AFF86033
:1047D000B9607A60FB6899B2BB689AB27B68DBB259
:1047E000084611461A4605F0D7FAFB689BB201331A
:1047F00099B2BB689AB27B68DBB2084611461A468A
:1048000005F0CAFAFB689BB202339AB2BB689BB24E
:1048100010461946002205F0BFFAFB689BB203332D
:1048200099B2BB689AB27B68DBB2084611461A4659
:1048300005F0B2FAFB689BB204339AB2BB689BB234
:1048400010461946002205F0A7FAFB689BB2053313
:1048500099B2BB689AB27B68DBB2084611461A4629
:1048600005F09AFAFB689BB206339AB2BB689BB21A
:1048700010461946002205F08FFAFB689BB20733F9
:1048800099B2BB689AB27B68DBB2084611461A46F9
:1048900005F082FA1037BD4680BD00BF80B584B0F8
:1048A00000AFF860B9607A60FB6899B2BB689AB2F1
:1048B0007B68DBB2084611461A4605F06DFAFB68C4
:1048C0009BB2013399B2BB689AB27B68DBB20846EF
:1048D00011461A4605F060FAFB689BB202339AB2A1
:1048E000BB689BB210461946002205F055FAFB68DA
:1048F0009BB2033399B2BB689AB27B68DBB20846BD
:1049000011461A4605F048FAFB689BB2043399B287
:10491000BB689AB27B68DBB2084611461A4605F0BE
:104920003BFAFB689BB205339AB2BB689BB2104658
:104930001946002205F030FAFB689BB206339AB2A2
:10494000BB689BB210461946002205F025FAFB68A9
:104950009BB207339AB2BB689BB21046194600223D
:1049600005F01AFA1037BD4680BD00BF80B584B08F
:1049700000AFF860B9607A60FB6899B2BB689AB220
:104980007B68DBB2084611461A4605F005FAFB685B
:104990009BB2013399B2BB689AB27B68DBB208461E
:1049A00011461A4605F0F8F9FB689BB202339AB239
:1049B000BB689BB210461946002205F0EDF9FB6872
:1049C0009BB2033399B2BB689AB27B68DBB20846EC
:1049D00011461A4605F0E0F9FB689BB2043399B220
:1049E000BB689AB27B68DBB2084611461A4605F0EE
:1049F000D3F9FB689BB2053399B2BB689AB27B6866
:104A0000DBB2084611461A4605F0C6F9FB689BB2B0
:104A100006339AB2BB689BB210461946002205F0D5
:104A2000BBF9FB689BB207339AB2BB689BB21046D6
:104A30001946002205F0B0F91037BD4680BD00BF11
:104A400080B584B000AFF860B9607A60FB6899B255
:104A5000BB689AB27B68DBB2084611461A4605F07D
:104A60009BF9FB689BB2013399B2BB689AB27B6831
:104A7000DBB2084611461A4605F08EF9FB689BB278
:104A800002339AB2BB689BB210461946002205F069
:104A900083F9FB689BB2033399B2BB689AB27B6817
:104AA000DBB2084611461A4605F076F9FB689BB260
:104AB000043399B2BB689AB27B68DBB208461146F0
:104AC0001A4605F069F9FB689BB2053399B2BB68D9
:104AD0009AB27B68DBB2084611461A4605F05CF9CB
:104AE000FB689BB206339AB2BB689BB2104619466C
:104AF000002205F051F9FB689BB2073399B2BB68FD
:104B00009AB27B68DBB2084611461A4605F044F9B2
:104B10001037BD4680BD00BF80B584B000AFF860DF
:104B2000B9607A60FB6899B2BB689AB27B68DBB205
:104B3000084611461A4605F02FF9FB689BB201336F
:104B400099B2BB689AB27B68DBB2084611461A4636
:104B500005F022F9FB689BB2023399B2BB689AB2A6
:104B60007B68DBB2084611461A4605F015F9FB686A
:104B70009BB203339AB2BB689BB21046194600221F
:104B800005F00AF9FB689BB204339AB2BB689BB28A
:104B900010461946002205F0FFF8FB689BB205336A
:104BA0009AB2BB689BB210461946002205F0F4F891
:104BB000FB689BB2063399B2BB689AB27B68DBB2E2
:104BC000084611461A4605F0E7F8FB689BB2073322
:104BD00099B2BB689AB27B68DBB2084611461A46A6
:104BE00005F0DAF81037BD4680BD00BF80B584B04F
:104BF00000AFF860B9607A60FB6899B2BB689AB29E
:104C00007B68DBB2084611461A4605F0C5F8FB681A
:104C10009BB2013399B2BB689AB27B68DBB208469B
:104C200011461A4605F0B8F8FB689BB2023399B2F8
:104C3000BB689AB27B68DBB2084611461A4605F09B
:104C4000ABF8FB689BB2033399B2BB689AB27B683E
:104C5000DBB2084611461A4605F09EF8FB689BB287
:104C600004339AB2BB689BB210461946002205F085
:104C700093F8FB689BB2053399B2BB689AB27B6824
:104C8000DBB2084611461A4605F086F8FB689BB26F
:104C900006339AB2BB689BB210461946002205F053
:104CA0007BF8FB689BB2073399B2BB689AB27B680A
:104CB000DBB2084611461A4605F06EF81037BD46BD
:104CC00080BD00BF80B584B000AFF860B9607A6085
:104CD000FB6899B2BB689AB27B68DBB208461146A2
:104CE0001A4605F059F8FB689BB2013399B2BB68CC
:104CF0009AB27B68DBB2084611461A4605F04CF8BA
:104D0000FB689BB2023399B2BB689AB27B68DBB294
:104D1000084611461A4605F03FF8FB689BB203337C
:104D200099B2BB689AB27B68DBB2084611461A4654
:104D300005F032F8FB689BB204339AB2BB689BB2B1
:104D400010461946002205F027F8FB689BB2053390
:104D500099B2BB689AB27B68DBB2084611461A4624
:104D600005F01AF8FB689BB2063399B2BB689AB299
:104D70007B68DBB2084611461A4605F00DF8FB6861
:104D80009BB2073399B2BB689AB27B68DBB2084624
:104D900011461A4605F000F81037BD4680BD00BF29
:104DA00080B584B000AFF860B9607A60FB6899B2F2
:104DB000BB689AB27B68DBB2084611461A4604F01B
:104DC000EBFFFB689BB2013399B2BB689AB27B6878
:104DD000DBB2084611461A4604F0DEFFFB689BB2C0
:104DE000023399B2BB689AB27B68DBB208461146BF
:104DF0001A4604F0D1FFFB689BB2033399B2BB683B
:104E00009AB27B68DBB2084611461A4604F0C4FF2A
:104E1000FB689BB2043399B2BB689AB27B68DBB281
:104E2000084611461A4604F0B7FFFB689BB20533EB
:104E30009AB2BB689BB210461946002204F0ACFF40
:104E4000FB689BB206339AB2BB689BB21046194608
:104E5000002204F0A1FFFB689BB207339AB2BB6843
:104E60009BB210461946002204F096FF1037BD464B
:104E700080BD00BF80B584B000AFF860B9607A60D3
:104E8000FB6899B2BB689AB27B68DBB208461146F0
:104E90001A4604F081FFFB689BB2013399B2BB68EC
:104EA0009AB27B68DBB2084611461A4604F074FFDA
:104EB000FB689BB2023399B2BB689AB27B68DBB2E3
:104EC000084611461A4604F067FFFB689BB203339D
:104ED00099B2BB689AB27B68DBB2084611461A46A3
:104EE00004F05AFFFB689BB2043399B2BB689AB2D4
:104EF0007B68DBB2084611461A4604F04DFFFB689A
:104F00009BB2053399B2BB689AB27B68DBB20846A4
:104F100011461A4604F040FFFB689BB206339AB272
:104F2000BB689BB210461946002204F035FFFB68AF
:104F30009BB207339AB2BB689BB210461946002257
:104F400004F02AFF1037BD4680BD00BF80B584B095
:104F500000AFF860B9607A60FB6899B2BB689AB23A
:104F60007B68DBB2084611461A4604F015FFFB6861
:104F70009BB2013399B2BB689AB27B68DBB2084638
:104F800011461A4604F008FFFB689BB2023399B23F
:104F9000BB689AB27B68DBB2084611461A4604F039
:104FA000FBFEFB689BB2033399B2BB689AB27B6885
:104FB000DBB2084611461A4604F0EEFEFB689BB2CF
:104FC000043399B2BB689AB27B68DBB208461146DB
:104FD0001A4604F0E1FEFB689BB2053399B2BB6848
:104FE0009AB27B68DBB2084611461A4604F0D4FE3A
:104FF000FB689BB2063399B2BB689AB27B68DBB29E
:10500000084611461A4604F0C7FEFB689BB20733F8
:105010009AB2BB689BB210461946002204F0BCFE4F
:105020001037BD4680BD00BF80B584B000AFF860CA
:10503000B9607A60FB6899B2BB689AB27B68DBB2F0
:10504000084611461A4604F0A7FEFB689BB20133DE
:105050009AB2BB689BB210461946002204F09CFE2F
:10506000FB689BB202339AB2BB689BB210461946EA
:10507000002204F091FEFB689BB203339AB2BB6836
:105080009BB210461946002204F086FEFB689BB2D4
:1050900004339AB2BB689BB210461946002204F052
:1050A0007BFEFB689BB205339AB2BB689BB210468D
:1050B0001946002204F070FEFB689BB206339AB2D8
:1050C000BB689BB210461946002204F065FEFB68DF
:1050D0009BB207339AB2BB689BB2104619460022B6
:1050E00004F05AFE1037BD4680BD00BF80B584B0C5
:1050F00000AFF860B9607A60FB6899B2BB689AB299
:105100007B68DBB2084611461A4604F045FEFB6890
:105110009BB201339AB2BB689BB21046194600227B
:1051200004F03AFEFB689BB202339AB2BB689BB2B2
:1051300010461946002204F02FFEFB689BB2033391
:105140009AB2BB689BB210461946002204F024FEB6
:10515000FB689BB2043399B2BB689AB27B68DBB23E
:10516000084611461A4604F017FEFB689BB2053349
:105170009AB2BB689BB210461946002204F00CFE9E
:10518000FB689BB206339AB2BB689BB210461946C5
:10519000002204F001FEFB689BB2073399B2BB68A2
:1051A0009AB27B68DBB2084611461A4604F0F4FD59
:1051B0001037BD4680BD00BF80B500AF04F088FD4C
:1051C00080BD00BF80B582B000AF78607B68DBB285
:1051D000184604F0BDFD0837BD4680BD80B58CB0D3
:1051E00000AFF860B9607A603B607A68FB68D31AF8
:1051F000002BB8BF5B427B62FA687B689A4201DA97
:10520000012301E04FF0FF333B623A68BB68D31AD9
:10521000002BB8BF5B42FB61BA683B689A4201DA77
:10522000012301E04FF0FF33BB617A6AFB699A42C8
:1052300005DCFB695B42DA0F13445B1003E07B6A19
:10524000DA0F13445B10FB620023BB620023BB62D6
:1052500011E0FB689AB2BB6A9BB2134499B2BB6877
:105260009AB2FB6BDBB2084611461A4604F094FD75
:10527000BB6A0133BB62BA6ABB6B9A42E9DDFA686A
:105280007B689A4204D1BA683B689A4200D11CE01C
:10529000FB6A7B617B6A5A427B699A4207DAFA6A47
:1052A000FB69D31AFB62FA683B6A1344FB607A69B4
:1052B000FB699A4208DAFA6A7B6A1344FB62BA68AD
:1052C000BB691344BB60C1E7C0E73037BD4680BD52
:1052D00080B586B002AFF860B9607A603B600123A8
:1052E00000933B6A0193F868B9687A683B68FFF7F6
:1052F00075FF012300933B6A0193F868B968BA69A6
:10530000FB69FFF76BFF012300933B6A0193786809
:105310003968BA69FB69FFF761FF1037BD4680BD88
:1053200080B588B000AFF860B9607A603B607A6899
:10533000FB68D31A7B613A68BB68D31A3B610023D0
:10534000FB610023BB610023FB611FE00023BB6105
:1053500015E0BB699AB2FB689BB2134499B2FB6932
:105360009AB2BB689BB213449AB2BB6ADBB20846DE
:1053700011461A4604F010FDBB690133BB61BA69DE
:105380007B699A42E5DDFB690133FB61FA693B69A0
:105390009A42DBDD2037BD4680BD00BF80B586B0B8
:1053A00000AFF860B9607A603B6000237B61002346
:1053B0003B613B685B423B6141E07B685B427B61F8
:1053C00036E07B697A6902FB03F33A6802FB03F378
:1053D0003A6802FB03F23B69396901FB03F3796820
:1053E00001FB03F3796801FB03F31A443B68396856
:1053F00001FB03F3796801FB03F3796801FB03F315
:105400009A4212DC7B699AB2FB689BB2134499B250
:105410003B699AB2BB689BB213449AB23B6ADBB257
:10542000084611461A4604F0B7FC7B6901337B61DC
:105430007A697B689A42C4DD3B6901333B613A6912
:105440003B689A42B9DD1837BD4680BD80B588B04B
:1054500000AFF860B9607A603B600023BB61FB6815
:105460007B610023FB617EE13B685A1C3A601B783C
:10547000FB74FB69DA00FB6813447B617B69B3F55D
:10548000A07F0DDBBB69002B02D1BB680A33BB6078
:10549000BB69DA00FB6813447B61BB690133BB6104
:1054A000FB7C203B5A2B00F25B8101A252F823F0D7
:1054B00055570008615700086157000861570008F8
:1054C00061570008615700086157000861570008DC
:1054D00061570008615700086157000861570008CC
:1054E00061570008615700086157000861570008BC
:1054F00061570008615700086157000861570008AC
:10550000615700086157000861570008615700089B
:10551000615700086157000861570008615700088B
:10552000615700086157000861570008615700087B
:10553000615700086157000861570008615700086B
:10554000615700086157000861570008615700085B
:10555000615700086157000861570008615700084B
:10556000615700086157000861570008615700083B
:10557000615700086157000861570008615700082B
:10558000615700086157000861570008615700081B
:10559000615700086157000861570008615700080B
:1055A00061570008615700086157000861570008FB
:1055B000615700081D560008295600083556000896
:1055C000415600084D560008595600086556000817
:1055D000715600087D560008895600089556000847
:1055E000A1560008AD560008B9560008C556000877
:1055F000D1560008DD560008E9560008F5560008A7
:10560000015700080D5700081957000825570008D2
:10561000315700083D570008495700087869B968B4
:105620007A6800F061FD9BE07869B9687A6800F0FB
:105630009BFD95E07869B9687A6800F0D5FD8FE048
:105640007869B9687A6800F00FFE89E07869B9680E
:105650007A6800F049FE83E07869B9687A6800F0FA
:1056600083FE7DE07869B9687A6800F0BDFE77E076
:105670007869B9687A6800F0F7FE71E07869B9680E
:105680007A6800F031FF6BE07869B9687A6800F0F9
:105690006BFF65E07869B9687A6800F0A5FF5FE0A4
:1056A0007869B9687A6800F0DFFF59E07869B9680D
:1056B0007A6801F019F853E07869B9687A6801F0FE
:1056C00053F84DE07869B9687A6801F08DF847E0E1
:1056D0007869B9687A6801F0C7F841E07869B96813
:1056E0007A6801F001F93BE07869B9687A6801F0FD
:1056F0003BF935E07869B9687A6801F075F92FE00F
:105700007869B9687A6801F0AFF929E07869B96811
:105710007A6801F0E9F923E07869B9687A6801F0FC
:1057200023FA1DE07869B9687A6801F05DFA17E03C
:105730007869B9687A6801F097FA11E07869B96810
:105740007A6801F0D1FA0BE07869B9687A6801F0FB
:105750000BFB05E07869B9687A6803F045F800BF8B
:10576000FB690133FB61BB6A5A1EFB699A42BFF6B3
:105770007BAE2037BD4680BD80B588B000AFF860F5
:10578000B9607A603B600023BB61FB687B610023EA
:10579000FB617EE13B685A1C3A601B78FB74FB6935
:1057A000DA00FB6813447B617B69B3F5A07F0DDBF6
:1057B000BB69002B02D1BB680A33BB60BB69DA004E
:1057C000FB6813447B61BB690133BB61FB7C203BFD
:1057D0005A2B00F25B8101A252F823F0815A000893
:1057E0008D5A00088D5A00088D5A00088D5A0008FD
:1057F0008D5A00088D5A00088D5A00088D5A0008ED
:105800008D5A00088D5A00088D5A00088D5A0008DC
:105810008D5A00088D5A00088D5A00088D5A0008CC
:105820008D5A00088D5A00088D5A00088D5A0008BC
:105830008D5A00088D5A00088D5A00088D5A0008AC
:105840008D5A00088D5A00088D5A00088D5A00089C
:105850008D5A00088D5A00088D5A00088D5A00088C
:105860008D5A00088D5A00088D5A00088D5A00087C
:105870008D5A00088D5A00088D5A00088D5A00086C
:105880008D5A00088D5A00088D5A00088D5A00085C
:105890008D5A00088D5A00088D5A00088D5A00084C
:1058A0008D5A00088D5A00088D5A00088D5A00083C
:1058B0008D5A00088D5A00088D5A00088D5A00082C
:1058C0008D5A00088D5A00088D5A00088D5A00081C
:1058D0008D5A00088D5A00088D5A00088D5A00080C
:1058E0004959000855590008615900086D590008C8
:1058F0007959000885590008915900089D590008F8
:10590000A9590008B5590008C1590008CD59000827
:10591000D9590008E5590008F1590008FD59000857
:10592000095A0008155A0008215A00082D5A000883
:10593000395A0008455A0008515A00085D5A0008B3
:10594000695A0008755A00087869B9687A6802F0DF
:10595000CBF89BE07869B9687A6802F005F995E0C0
:105960007869B9687A6802F03FF98FE07869B968B8
:105970007A6802F079F989E07869B9687A6802F0A2
:10598000B3F983E07869B9687A6802F0EDF97DE0EF
:105990007869B9687A6802F027FA77E07869B968B7
:1059A0007A6802F061FA71E07869B9687A6802F0A1
:1059B0009BFA6BE07869B9687A6802F0D5FA65E01D
:1059C0007869B9687A6802F00FFB5FE07869B968B6
:1059D0007A6802F049FB59E07869B9687A6802F0A0
:1059E00083FB53E07869B9687A6802F0BDFB4DE04B
:1059F0007869B9687A6802F0F7FB47E07869B968B6
:105A00007A6802F031FC41E07869B9687A6802F09E
:105A10006BFC3BE07869B9687A6802F0A5FC35E078
:105A20007869B9687A6802F0DFFC2FE07869B968B4
:105A30007A6802F019FD29E07869B9687A6802F09D
:105A400053FD23E07869B9687A6802F08DFD1DE0A6
:105A50007869B9687A6802F0C7FD17E07869B968B3
:105A60007A6802F001FE11E07869B9687A6802F09C
:105A70003BFE0BE07869B9687A6802F075FE05E0D4
:105A80007869B9687A6802F0AFFE00BFFB6901333C
:105A9000FB61BB6A5A1EFB699A42BFF67BAE203798
:105AA000BD4680BD80B588B000AFF860B9607A604F
:105AB0003B600023BB61FB687B610023FB617EE1EF
:105AC000FB693A6813441B78FB74FB69DA00FB68D6
:105AD00013447B617B69B3F5A07F0DDBBB69002BB1
